{
  "contractName": "Todo",
  "abi": [
    {
      "inputs": [
        {
          "internalType": "uint256",
          "name": "",
          "type": "uint256"
        }
      ],
      "name": "tasks",
      "outputs": [
        {
          "internalType": "uint256",
          "name": "taskid",
          "type": "uint256"
        },
        {
          "internalType": "address",
          "name": "writer",
          "type": "address"
        },
        {
          "internalType": "string",
          "name": "content",
          "type": "string"
        },
        {
          "internalType": "string",
          "name": "author",
          "type": "string"
        },
        {
          "internalType": "bool",
          "name": "done",
          "type": "bool"
        }
      ],
      "stateMutability": "view",
      "type": "function",
      "constant": true
    },
    {
      "inputs": [
        {
          "internalType": "string",
          "name": "_content",
          "type": "string"
        },
        {
          "internalType": "string",
          "name": "_author",
          "type": "string"
        }
      ],
      "name": "createTask",
      "outputs": [],
      "stateMutability": "nonpayable",
      "type": "function"
    },
    {
      "inputs": [
        {
          "internalType": "uint256",
          "name": "_id",
          "type": "uint256"
        }
      ],
      "name": "getTask",
      "outputs": [
        {
          "internalType": "uint256",
          "name": "",
          "type": "uint256"
        },
        {
          "internalType": "address",
          "name": "",
          "type": "address"
        },
        {
          "internalType": "string",
          "name": "",
          "type": "string"
        },
        {
          "internalType": "string",
          "name": "",
          "type": "string"
        },
        {
          "internalType": "bool",
          "name": "",
          "type": "bool"
        }
      ],
      "stateMutability": "view",
      "type": "function",
      "constant": true
    },
    {
      "inputs": [],
      "name": "getTasks",
      "outputs": [
        {
          "components": [
            {
              "internalType": "uint256",
              "name": "taskid",
              "type": "uint256"
            },
            {
              "internalType": "address",
              "name": "writer",
              "type": "address"
            },
            {
              "internalType": "string",
              "name": "content",
              "type": "string"
            },
            {
              "internalType": "string",
              "name": "author",
              "type": "string"
            },
            {
              "internalType": "bool",
              "name": "done",
              "type": "bool"
            }
          ],
          "internalType": "struct Todo.Task[]",
          "name": "",
          "type": "tuple[]"
        }
      ],
      "stateMutability": "view",
      "type": "function",
      "constant": true
    },
    {
      "inputs": [
        {
          "internalType": "uint256",
          "name": "_index",
          "type": "uint256"
        }
      ],
      "name": "setDoneTrue",
      "outputs": [],
      "stateMutability": "nonpayable",
      "type": "function"
    },
    {
      "inputs": [],
      "name": "callerFunc",
      "outputs": [
        {
          "internalType": "address",
          "name": "",
          "type": "address"
        }
      ],
      "stateMutability": "view",
      "type": "function",
      "constant": true
    }
  ],
  "bytecode": "0x608060405234801561001057600080fd5b50610fc9806100206000396000f3fe608060405234801561001057600080fd5b50600436106100625760003560e01c806304a87e38146100675780631d65e77e14610085578063272d98af146100b9578063292a4585146100d757806337d18bbd146100f35780638d9776721461010f575b600080fd5b61006f610143565b60405161007c9190610bd5565b60405180910390f35b61009f600480360381019061009a9190610c37565b610341565b6040516100b0959493929190610cdb565b60405180910390f35b6100c1610538565b6040516100ce9190610d3c565b60405180910390f35b6100f160048036038101906100ec9190610e8c565b610545565b005b61010d60048036038101906101089190610c37565b61066c565b005b61012960048036038101906101249190610c37565b610762565b60405161013a959493929190610cdb565b60405180910390f35b60606000805480602002602001604051908101604052809291908181526020016000905b8282101561033857838290600052602060002090600502016040518060a0016040529081600082015481526020016001820160009054906101000a900473ffffffffffffffffffffffffffffffffffffffff1673ffffffffffffffffffffffffffffffffffffffff1673ffffffffffffffffffffffffffffffffffffffff1681526020016002820180546101fa90610f33565b80601f016020809104026020016040519081016040528092919081815260200182805461022690610f33565b80156102735780601f1061024857610100808354040283529160200191610273565b820191906000526020600020905b81548152906001019060200180831161025657829003601f168201915b5050505050815260200160038201805461028c90610f33565b80601f01602080910402602001604051908101604052809291908181526020018280546102b890610f33565b80156103055780601f106102da57610100808354040283529160200191610305565b820191906000526020600020905b8154815290600101906020018083116102e857829003601f168201915b505050505081526020016004820160009054906101000a900460ff16151515158152505081526020019060010190610167565b50505050905090565b6000806060806000856000878154811061035e5761035d610f64565b5b906000526020600020906005020160010160009054906101000a900473ffffffffffffffffffffffffffffffffffffffff16600088815481106103a4576103a3610f64565b5b9060005260206000209060050201600201600089815481106103c9576103c8610f64565b5b906000526020600020906005020160030160008a815481106103ee576103ed610f64565b5b906000526020600020906005020160040160009054906101000a900460ff1682805461041990610f33565b80601f016020809104026020016040519081016040528092919081815260200182805461044590610f33565b80156104925780601f1061046757610100808354040283529160200191610492565b820191906000526020600020905b81548152906001019060200180831161047557829003601f168201915b505050505092508180546104a590610f33565b80601f01602080910402602001604051908101604052809291908181526020018280546104d190610f33565b801561051e5780601f106104f35761010080835404028352916020019161051e565b820191906000526020600020905b81548152906001019060200180831161050157829003601f168201915b505050505091509450945094509450945091939590929450565b6000803390508091505090565b600033905060006040518060a0016040528060008054905081526020018373ffffffffffffffffffffffffffffffffffffffff1681526020018581526020018481526020016000151581525090806001815401808255809150506001900390600052602060002090600502016000909190919091506000820151816000015560208201518160010160006101000a81548173ffffffffffffffffffffffffffffffffffffffff021916908373ffffffffffffffffffffffffffffffffffffffff16021790555060408201518160020190805190602001906106279291906108e5565b5060608201518160030190805190602001906106449291906108e5565b5060808201518160040160006101000a81548160ff0219169083151502179055505050505050565b60003390508073ffffffffffffffffffffffffffffffffffffffff166000838154811061069c5761069b610f64565b5b906000526020600020906005020160010160009054906101000a900473ffffffffffffffffffffffffffffffffffffffff1673ffffffffffffffffffffffffffffffffffffffff16146106ee57600080fd5b6000828154811061070257610701610f64565b5b906000526020600020906005020160040160009054906101000a900460ff16156000838154811061073657610735610f64565b5b906000526020600020906005020160040160006101000a81548160ff0219169083151502179055505050565b6000818154811061077257600080fd5b90600052602060002090600502016000915090508060000154908060010160009054906101000a900473ffffffffffffffffffffffffffffffffffffffff16908060020180546107c190610f33565b80601f01602080910402602001604051908101604052809291908181526020018280546107ed90610f33565b801561083a5780601f1061080f5761010080835404028352916020019161083a565b820191906000526020600020905b81548152906001019060200180831161081d57829003601f168201915b50505050509080600301805461084f90610f33565b80601f016020809104026020016040519081016040528092919081815260200182805461087b90610f33565b80156108c85780601f1061089d576101008083540402835291602001916108c8565b820191906000526020600020905b8154815290600101906020018083116108ab57829003601f168201915b5050505050908060040160009054906101000a900460ff16905085565b8280546108f190610f33565b90600052602060002090601f016020900481019282610913576000855561095a565b82601f1061092c57805160ff191683800117855561095a565b8280016001018555821561095a579182015b8281111561095957825182559160200191906001019061093e565b5b509050610967919061096b565b5090565b5b8082111561098457600081600090555060010161096c565b5090565b600081519050919050565b600082825260208201905092915050565b6000819050602082019050919050565b6000819050919050565b6109c7816109b4565b82525050565b600073ffffffffffffffffffffffffffffffffffffffff82169050919050565b60006109f8826109cd565b9050919050565b610a08816109ed565b82525050565b600081519050919050565b600082825260208201905092915050565b60005b83811015610a48578082015181840152602081019050610a2d565b83811115610a57576000848401525b50505050565b6000601f19601f8301169050919050565b6000610a7982610a0e565b610a838185610a19565b9350610a93818560208601610a2a565b610a9c81610a5d565b840191505092915050565b60008115159050919050565b610abc81610aa7565b82525050565b600060a083016000830151610ada60008601826109be565b506020830151610aed60208601826109ff565b5060408301518482036040860152610b058282610a6e565b91505060608301518482036060860152610b1f8282610a6e565b9150506080830151610b346080860182610ab3565b508091505092915050565b6000610b4b8383610ac2565b905092915050565b6000602082019050919050565b6000610b6b82610988565b610b758185610993565b935083602082028501610b87856109a4565b8060005b85811015610bc35784840389528151610ba48582610b3f565b9450610baf83610b53565b925060208a01995050600181019050610b8b565b50829750879550505050505092915050565b60006020820190508181036000830152610bef8184610b60565b905092915050565b6000604051905090565b600080fd5b600080fd5b610c14816109b4565b8114610c1f57600080fd5b50565b600081359050610c3181610c0b565b92915050565b600060208284031215610c4d57610c4c610c01565b5b6000610c5b84828501610c22565b91505092915050565b610c6d816109b4565b82525050565b610c7c816109ed565b82525050565b600082825260208201905092915050565b6000610c9e82610a0e565b610ca88185610c82565b9350610cb8818560208601610a2a565b610cc181610a5d565b840191505092915050565b610cd581610aa7565b82525050565b600060a082019050610cf06000830188610c64565b610cfd6020830187610c73565b8181036040830152610d0f8186610c93565b90508181036060830152610d238185610c93565b9050610d326080830184610ccc565b9695505050505050565b6000602082019050610d516000830184610c73565b92915050565b600080fd5b600080fd5b7f4e487b7100000000000000000000000000000000000000000000000000000000600052604160045260246000fd5b610d9982610a5d565b810181811067ffffffffffffffff82111715610db857610db7610d61565b5b80604052505050565b6000610dcb610bf7565b9050610dd78282610d90565b919050565b600067ffffffffffffffff821115610df757610df6610d61565b5b610e0082610a5d565b9050602081019050919050565b82818337600083830152505050565b6000610e2f610e2a84610ddc565b610dc1565b905082815260208101848484011115610e4b57610e4a610d5c565b5b610e56848285610e0d565b509392505050565b600082601f830112610e7357610e72610d57565b5b8135610e83848260208601610e1c565b91505092915050565b60008060408385031215610ea357610ea2610c01565b5b600083013567ffffffffffffffff811115610ec157610ec0610c06565b5b610ecd85828601610e5e565b925050602083013567ffffffffffffffff811115610eee57610eed610c06565b5b610efa85828601610e5e565b9150509250929050565b7f4e487b7100000000000000000000000000000000000000000000000000000000600052602260045260246000fd5b60006002820490506001821680610f4b57607f821691505b602082108103610f5e57610f5d610f04565b5b50919050565b7f4e487b7100000000000000000000000000000000000000000000000000000000600052603260045260246000fdfea264697066735822122060e30f19653b4dbd37a81e5a0dafd642887999e651af00e63b2044531a1fb6fd64736f6c634300080e0033",
  "immutableReferences": {},
  "source": "//SPDX-License-Identifier: Unlicense\r\npragma solidity ^0.8.0;\r\n\r\n\r\n\r\ncontract Todo {\r\n    struct Task {\r\n        uint taskid;\r\n        address writer;\r\n        string content;\r\n        string author;\r\n        bool done;\r\n    }\r\n\r\n    Task[] public tasks;\r\n    \r\n    function createTask(string memory _content, string memory _author ) external {\r\n        address _writer = msg.sender;\r\n     tasks.push(Task(tasks.length, _writer , _content, _author, false));\r\n    \r\n     \r\n    } \r\n    function getTask(uint _id) view external returns (uint, address, string memory, string memory, bool) {\r\n        \r\n         return (\r\n             _id,tasks[_id].writer , tasks[_id].content, tasks[_id].author, tasks[_id].done\r\n         );\r\n    }\r\n    function getTasks() view external returns (Task[] memory) {\r\n        return tasks;\r\n       }\r\n    function setDoneTrue(uint _index) external {\r\n        address _writer = msg.sender;\r\n        require (tasks[_index].writer == _writer);\r\n        tasks[_index].done = !tasks[_index].done;\r\n    }\r\n\r\n    function callerFunc() external view returns (address) {\r\n        address caller = msg.sender;\r\n        return caller;\r\n    } \r\n\r\n\r\n\r\n}\r\n\r\n",
  "sourcePath": "C:\\Users\\Slim5 A1IN R5\\Desktop\\ToDo_App\\truffle\\contracts\\Todo.sol",
  "compiler": {
    "name": "solc",
    "version": "0.8.14+commit.80d49f37.Emscripten.clang"
  },
  "schemaVersion": "3.4.10",
  "updatedAt": "2022-11-11T09:18:05.344Z",
  "networkType": "ethereum",
  "devdoc": {
    "kind": "dev",
    "methods": {},
    "version": 1
  },
  "userdoc": {
    "kind": "user",
    "methods": {},
    "version": 1
  }
}